{
  "_format": "hh-sol-artifact-1",
  "contractName": "Hospital",
  "sourceName": "contracts/Hospital.sol",
  "abi": [
    {
      "inputs": [],
      "stateMutability": "nonpayable",
      "type": "constructor"
    },
    {
      "inputs": [
        {
          "internalType": "uint256",
          "name": "_patientId",
          "type": "uint256"
        },
        {
          "internalType": "string",
          "name": "_name",
          "type": "string"
        },
        {
          "internalType": "uint8",
          "name": "_age",
          "type": "uint8"
        },
        {
          "internalType": "string",
          "name": "_condition",
          "type": "string"
        },
        {
          "internalType": "string",
          "name": "_remarks",
          "type": "string"
        }
      ],
      "name": "addAppointment",
      "outputs": [],
      "stateMutability": "nonpayable",
      "type": "function"
    },
    {
      "inputs": [
        {
          "internalType": "address",
          "name": "_mod",
          "type": "address"
        }
      ],
      "name": "addMod",
      "outputs": [],
      "stateMutability": "nonpayable",
      "type": "function"
    },
    {
      "inputs": [
        {
          "internalType": "uint256",
          "name": "",
          "type": "uint256"
        },
        {
          "internalType": "uint256",
          "name": "",
          "type": "uint256"
        }
      ],
      "name": "appointments",
      "outputs": [
        {
          "internalType": "string",
          "name": "name",
          "type": "string"
        },
        {
          "internalType": "uint8",
          "name": "age",
          "type": "uint8"
        },
        {
          "internalType": "uint256",
          "name": "visitTime",
          "type": "uint256"
        },
        {
          "internalType": "string",
          "name": "condition",
          "type": "string"
        },
        {
          "internalType": "string",
          "name": "remarks",
          "type": "string"
        }
      ],
      "stateMutability": "view",
      "type": "function"
    },
    {
      "inputs": [
        {
          "internalType": "uint256",
          "name": "_patientId",
          "type": "uint256"
        },
        {
          "internalType": "uint256",
          "name": "_appointmentId",
          "type": "uint256"
        }
      ],
      "name": "getAppointment",
      "outputs": [
        {
          "components": [
            {
              "internalType": "string",
              "name": "name",
              "type": "string"
            },
            {
              "internalType": "uint8",
              "name": "age",
              "type": "uint8"
            },
            {
              "internalType": "uint256",
              "name": "visitTime",
              "type": "uint256"
            },
            {
              "internalType": "string",
              "name": "condition",
              "type": "string"
            },
            {
              "internalType": "string",
              "name": "remarks",
              "type": "string"
            }
          ],
          "internalType": "struct Hospital.Appointment",
          "name": "",
          "type": "tuple"
        }
      ],
      "stateMutability": "view",
      "type": "function"
    },
    {
      "inputs": [
        {
          "internalType": "address",
          "name": "_patientAddress",
          "type": "address"
        }
      ],
      "name": "getPatientId",
      "outputs": [
        {
          "internalType": "uint256",
          "name": "",
          "type": "uint256"
        }
      ],
      "stateMutability": "view",
      "type": "function"
    },
    {
      "inputs": [
        {
          "internalType": "address",
          "name": "_patientAddress",
          "type": "address"
        }
      ],
      "name": "newPatient",
      "outputs": [
        {
          "internalType": "uint256",
          "name": "",
          "type": "uint256"
        }
      ],
      "stateMutability": "nonpayable",
      "type": "function"
    },
    {
      "inputs": [
        {
          "internalType": "uint256",
          "name": "_patientId",
          "type": "uint256"
        }
      ],
      "name": "numberOfVisits",
      "outputs": [
        {
          "internalType": "uint256",
          "name": "",
          "type": "uint256"
        }
      ],
      "stateMutability": "view",
      "type": "function"
    },
    {
      "inputs": [
        {
          "internalType": "uint256",
          "name": "",
          "type": "uint256"
        }
      ],
      "name": "patientAddress",
      "outputs": [
        {
          "internalType": "address",
          "name": "",
          "type": "address"
        }
      ],
      "stateMutability": "view",
      "type": "function"
    },
    {
      "inputs": [
        {
          "internalType": "address",
          "name": "",
          "type": "address"
        }
      ],
      "name": "patientId",
      "outputs": [
        {
          "internalType": "uint256",
          "name": "",
          "type": "uint256"
        }
      ],
      "stateMutability": "view",
      "type": "function"
    }
  ],
  "bytecode": "0x608060405234801561001057600080fd5b506001600360003373ffffffffffffffffffffffffffffffffffffffff1673ffffffffffffffffffffffffffffffffffffffff16815260200190815260200160002060006101000a81548160ff0219169083151502179055506000600481905550611706806100806000396000f3fe608060405234801561001057600080fd5b50600436106100935760003560e01c80634109398411610066578063410939841461014457806379f90d5e14610174578063cd9b33ee146101a4578063f53c7a58146101d8578063fa571782146101f457610093565b806301a002161461009857806305aeeea7146100b45780632604fa7b146100e45780633453624a14610114575b600080fd5b6100b260048036038101906100ad9190610f35565b610224565b005b6100ce60048036038101906100c99190610f5e565b610369565b6040516100db919061124f565b60405180910390f35b6100fe60048036038101906100f99190610f35565b61039c565b60405161010b9190611374565b60405180910390f35b61012e60048036038101906101299190610f5e565b6104c5565b60405161013b9190611374565b60405180910390f35b61015e60048036038101906101599190610f35565b610541565b60405161016b9190611374565b60405180910390f35b61018e60048036038101906101899190611046565b610559565b60405161019b9190611352565b60405180910390f35b6101be60048036038101906101b99190611046565b610806565b6040516101cf95949392919061126a565b60405180910390f35b6101f260048036038101906101ed9190610f87565b6109fe565b005b61020e60048036038101906102099190610f35565b610c1c565b60405161021b9190611374565b60405180910390f35b60011515600360003373ffffffffffffffffffffffffffffffffffffffff1673ffffffffffffffffffffffffffffffffffffffff16815260200190815260200160002060009054906101000a900460ff1615151461028157600080fd5b600360008273ffffffffffffffffffffffffffffffffffffffff1673ffffffffffffffffffffffffffffffffffffffff16815260200190815260200160002060009054906101000a900460ff161561030e576040517f08c379a0000000000000000000000000000000000000000000000000000000008152600401610305906112d2565b60405180910390fd5b6001600360008373ffffffffffffffffffffffffffffffffffffffff1673ffffffffffffffffffffffffffffffffffffffff16815260200190815260200160002060006101000a81548160ff02191690831515021790555050565b60026020528060005260406000206000915054906101000a900473ffffffffffffffffffffffffffffffffffffffff1681565b600060011515600360003373ffffffffffffffffffffffffffffffffffffffff1673ffffffffffffffffffffffffffffffffffffffff16815260200190815260200160002060009054906101000a900460ff161515146103fb57600080fd5b6000600160008473ffffffffffffffffffffffffffffffffffffffff1673ffffffffffffffffffffffffffffffffffffffff16815260200190815260200160002054141561047e576040517f08c379a0000000000000000000000000000000000000000000000000000000008152600401610475906112f2565b60405180910390fd5b600160008373ffffffffffffffffffffffffffffffffffffffff1673ffffffffffffffffffffffffffffffffffffffff168152602001908152602001600020549050919050565b600060011515600360003373ffffffffffffffffffffffffffffffffffffffff1673ffffffffffffffffffffffffffffffffffffffff16815260200190815260200160002060009054906101000a900460ff1615151461052457600080fd5b600080838152602001908152602001600020805490509050919050565b60016020528060005260406000206000915090505481565b610561610db9565b60011515600360003373ffffffffffffffffffffffffffffffffffffffff1673ffffffffffffffffffffffffffffffffffffffff16815260200190815260200160002060009054906101000a900460ff161515146105be57600080fd5b6000808481526020019081526020016000208281548110610608577f4e487b7100000000000000000000000000000000000000000000000000000000600052603260045260246000fd5b90600052602060002090600502016040518060a00160405290816000820180546106319061149d565b80601f016020809104026020016040519081016040528092919081815260200182805461065d9061149d565b80156106aa5780601f1061067f576101008083540402835291602001916106aa565b820191906000526020600020905b81548152906001019060200180831161068d57829003601f168201915b505050505081526020016001820160009054906101000a900460ff1660ff1660ff168152602001600282015481526020016003820180546106ea9061149d565b80601f01602080910402602001604051908101604052809291908181526020018280546107169061149d565b80156107635780601f1061073857610100808354040283529160200191610763565b820191906000526020600020905b81548152906001019060200180831161074657829003601f168201915b5050505050815260200160048201805461077c9061149d565b80601f01602080910402602001604051908101604052809291908181526020018280546107a89061149d565b80156107f55780601f106107ca576101008083540402835291602001916107f5565b820191906000526020600020905b8154815290600101906020018083116107d857829003601f168201915b505050505081525050905092915050565b6000602052816000526040600020818154811061082257600080fd5b9060005260206000209060050201600091509150508060000180546108469061149d565b80601f01602080910402602001604051908101604052809291908181526020018280546108729061149d565b80156108bf5780601f10610894576101008083540402835291602001916108bf565b820191906000526020600020905b8154815290600101906020018083116108a257829003601f168201915b5050505050908060010160009054906101000a900460ff16908060020154908060030180546108ed9061149d565b80601f01602080910402602001604051908101604052809291908181526020018280546109199061149d565b80156109665780601f1061093b57610100808354040283529160200191610966565b820191906000526020600020905b81548152906001019060200180831161094957829003601f168201915b50505050509080600401805461097b9061149d565b80601f01602080910402602001604051908101604052809291908181526020018280546109a79061149d565b80156109f45780601f106109c9576101008083540402835291602001916109f4565b820191906000526020600020905b8154815290600101906020018083116109d757829003601f168201915b5050505050905085565b60011515600360003373ffffffffffffffffffffffffffffffffffffffff1673ffffffffffffffffffffffffffffffffffffffff16815260200190815260200160002060009054906101000a900460ff16151514610a5b57600080fd5b600073ffffffffffffffffffffffffffffffffffffffff166002600087815260200190815260200160002060009054906101000a900473ffffffffffffffffffffffffffffffffffffffff1673ffffffffffffffffffffffffffffffffffffffff161415610afe576040517f08c379a0000000000000000000000000000000000000000000000000000000008152600401610af590611332565b60405180910390fd5b60008060008781526020019081526020016000208054905090506000808781526020019081526020016000206001816001815401808255809150500390600052602060002090505060008060008881526020019081526020016000208281548110610b92577f4e487b7100000000000000000000000000000000000000000000000000000000600052603260045260246000fd5b9060005260206000209060050201905085816000019080519060200190610bba929190610deb565b50848160010160006101000a81548160ff021916908360ff16021790555042816002018190555083816003019080519060200190610bf9929190610deb565b5082816004019080519060200190610c12929190610deb565b5050505050505050565b600060011515600360003373ffffffffffffffffffffffffffffffffffffffff1673ffffffffffffffffffffffffffffffffffffffff16815260200190815260200160002060009054906101000a900460ff16151514610c7b57600080fd5b6000600160008473ffffffffffffffffffffffffffffffffffffffff1673ffffffffffffffffffffffffffffffffffffffff1681526020019081526020016000205414610cfd576040517f08c379a0000000000000000000000000000000000000000000000000000000008152600401610cf490611312565b60405180910390fd5b60046000815480929190610d1090611500565b9190505550600454600160008473ffffffffffffffffffffffffffffffffffffffff1673ffffffffffffffffffffffffffffffffffffffff168152602001908152602001600020819055508160026000600454815260200190815260200160002060006101000a81548173ffffffffffffffffffffffffffffffffffffffff021916908373ffffffffffffffffffffffffffffffffffffffff1602179055506004549050919050565b6040518060a0016040528060608152602001600060ff1681526020016000815260200160608152602001606081525090565b828054610df79061149d565b90600052602060002090601f016020900481019282610e195760008555610e60565b82601f10610e3257805160ff1916838001178555610e60565b82800160010185558215610e60579182015b82811115610e5f578251825591602001919060010190610e44565b5b509050610e6d9190610e71565b5090565b5b80821115610e8a576000816000905550600101610e72565b5090565b6000610ea1610e9c846113b4565b61138f565b905082815260208101848484011115610eb957600080fd5b610ec484828561145b565b509392505050565b600081359050610edb8161168b565b92915050565b600082601f830112610ef257600080fd5b8135610f02848260208601610e8e565b91505092915050565b600081359050610f1a816116a2565b92915050565b600081359050610f2f816116b9565b92915050565b600060208284031215610f4757600080fd5b6000610f5584828501610ecc565b91505092915050565b600060208284031215610f7057600080fd5b6000610f7e84828501610f0b565b91505092915050565b600080600080600060a08688031215610f9f57600080fd5b6000610fad88828901610f0b565b955050602086013567ffffffffffffffff811115610fca57600080fd5b610fd688828901610ee1565b9450506040610fe788828901610f20565b935050606086013567ffffffffffffffff81111561100457600080fd5b61101088828901610ee1565b925050608086013567ffffffffffffffff81111561102d57600080fd5b61103988828901610ee1565b9150509295509295909350565b6000806040838503121561105957600080fd5b600061106785828601610f0b565b925050602061107885828601610f0b565b9150509250929050565b61108b81611412565b82525050565b600061109c826113e5565b6110a681856113f0565b93506110b681856020860161146a565b6110bf816115d6565b840191505092915050565b60006110d5826113e5565b6110df8185611401565b93506110ef81856020860161146a565b6110f8816115d6565b840191505092915050565b6000611110600d83611401565b915061111b826115e7565b602082019050919050565b6000611133601783611401565b915061113e82611610565b602082019050919050565b6000611156601583611401565b915061116182611639565b602082019050919050565b6000611179601683611401565b915061118482611662565b602082019050919050565b600060a08301600083015184820360008601526111ac8282611091565b91505060208301516111c16020860182611231565b5060408301516111d46040860182611213565b50606083015184820360608601526111ec8282611091565b915050608083015184820360808601526112068282611091565b9150508091505092915050565b61121c81611444565b82525050565b61122b81611444565b82525050565b61123a8161144e565b82525050565b6112498161144e565b82525050565b60006020820190506112646000830184611082565b92915050565b600060a082019050818103600083015261128481886110ca565b90506112936020830187611240565b6112a06040830186611222565b81810360608301526112b281856110ca565b905081810360808301526112c681846110ca565b90509695505050505050565b600060208201905081810360008301526112eb81611103565b9050919050565b6000602082019050818103600083015261130b81611126565b9050919050565b6000602082019050818103600083015261132b81611149565b9050919050565b6000602082019050818103600083015261134b8161116c565b9050919050565b6000602082019050818103600083015261136c818461118f565b905092915050565b60006020820190506113896000830184611222565b92915050565b60006113996113aa565b90506113a582826114cf565b919050565b6000604051905090565b600067ffffffffffffffff8211156113cf576113ce6115a7565b5b6113d8826115d6565b9050602081019050919050565b600081519050919050565b600082825260208201905092915050565b600082825260208201905092915050565b600061141d82611424565b9050919050565b600073ffffffffffffffffffffffffffffffffffffffff82169050919050565b6000819050919050565b600060ff82169050919050565b82818337600083830152505050565b60005b8381101561148857808201518184015260208101905061146d565b83811115611497576000848401525b50505050565b600060028204905060018216806114b557607f821691505b602082108114156114c9576114c8611578565b5b50919050565b6114d8826115d6565b810181811067ffffffffffffffff821117156114f7576114f66115a7565b5b80604052505050565b600061150b82611444565b91507fffffffffffffffffffffffffffffffffffffffffffffffffffffffffffffffff82141561153e5761153d611549565b5b600182019050919050565b7f4e487b7100000000000000000000000000000000000000000000000000000000600052601160045260246000fd5b7f4e487b7100000000000000000000000000000000000000000000000000000000600052602260045260246000fd5b7f4e487b7100000000000000000000000000000000000000000000000000000000600052604160045260246000fd5b6000601f19601f8301169050919050565b7f416c72656164792061206d6f6400000000000000000000000000000000000000600082015250565b7f4e65772070617469656e7420746f206265206164646564000000000000000000600082015250565b7f50617469656e7420616c72656164792061646465640000000000000000000000600082015250565b7f70617469656e7420646f6573206e6f7420657869737400000000000000000000600082015250565b61169481611412565b811461169f57600080fd5b50565b6116ab81611444565b81146116b657600080fd5b50565b6116c28161144e565b81146116cd57600080fd5b5056fea26469706673582212200f35a6db1b63fe044399497ff06f1a96209b428ed196d1e17d7a3e7449302c8a64736f6c63430008040033",
  "linkReferences": {},
  "deployedLinkReferences": {}
}